{
  "contractName": "Auction",
  "abi": [
    {
      "inputs": [
        {
          "internalType": "address",
          "name": "",
          "type": "address"
        }
      ],
      "name": "bids",
      "outputs": [
        {
          "internalType": "uint256",
          "name": "",
          "type": "uint256"
        }
      ],
      "stateMutability": "view",
      "type": "function"
    },
    {
      "inputs": [],
      "name": "endTime",
      "outputs": [
        {
          "internalType": "uint256",
          "name": "",
          "type": "uint256"
        }
      ],
      "stateMutability": "view",
      "type": "function"
    },
    {
      "inputs": [],
      "name": "highestBid",
      "outputs": [
        {
          "internalType": "uint256",
          "name": "bidAmount",
          "type": "uint256"
        },
        {
          "internalType": "address",
          "name": "bidder",
          "type": "address"
        }
      ],
      "stateMutability": "view",
      "type": "function"
    },
    {
      "inputs": [],
      "name": "newHouse",
      "outputs": [
        {
          "internalType": "string",
          "name": "houseType",
          "type": "string"
        },
        {
          "internalType": "string",
          "name": "houseColor",
          "type": "string"
        },
        {
          "internalType": "string",
          "name": "houseLocation",
          "type": "string"
        }
      ],
      "stateMutability": "view",
      "type": "function"
    },
    {
      "inputs": [],
      "name": "startTime",
      "outputs": [
        {
          "internalType": "uint256",
          "name": "",
          "type": "uint256"
        }
      ],
      "stateMutability": "view",
      "type": "function"
    }
  ],
  "bytecode": "0x608060405234801561000f575f80fd5b506105558061001d5f395ff3fe608060405234801561000f575f80fd5b5060043610610055575f3560e01c80633197cbb61461005957806362ea82db1461007757806378e97925146100a7578063d57bde79146100c5578063fa481f86146100e4575b5f80fd5b610061610104565b60405161006e9190610316565b60405180910390f35b610091600480360381019061008c919061038d565b61010a565b60405161009e9190610316565b60405180910390f35b6100af61011f565b6040516100bc9190610316565b60405180910390f35b6100cd610125565b6040516100db9291906103c7565b60405180910390f35b6100ec610155565b6040516100fb93929190610478565b60405180910390f35b60025481565b6003602052805f5260405f205f915090505481565b60015481565b6007805f015490806001015f9054906101000a900473ffffffffffffffffffffffffffffffffffffffff16905082565b6004805f018054610165906104ef565b80601f0160208091040260200160405190810160405280929190818152602001828054610191906104ef565b80156101dc5780601f106101b3576101008083540402835291602001916101dc565b820191905f5260205f20905b8154815290600101906020018083116101bf57829003601f168201915b5050505050908060010180546101f1906104ef565b80601f016020809104026020016040519081016040528092919081815260200182805461021d906104ef565b80156102685780601f1061023f57610100808354040283529160200191610268565b820191905f5260205f20905b81548152906001019060200180831161024b57829003601f168201915b50505050509080600201805461027d906104ef565b80601f01602080910402602001604051908101604052809291908181526020018280546102a9906104ef565b80156102f45780601f106102cb576101008083540402835291602001916102f4565b820191905f5260205f20905b8154815290600101906020018083116102d757829003601f168201915b5050505050905083565b5f819050919050565b610310816102fe565b82525050565b5f6020820190506103295f830184610307565b92915050565b5f80fd5b5f73ffffffffffffffffffffffffffffffffffffffff82169050919050565b5f61035c82610333565b9050919050565b61036c81610352565b8114610376575f80fd5b50565b5f8135905061038781610363565b92915050565b5f602082840312156103a2576103a161032f565b5b5f6103af84828501610379565b91505092915050565b6103c181610352565b82525050565b5f6040820190506103da5f830185610307565b6103e760208301846103b8565b9392505050565b5f81519050919050565b5f82825260208201905092915050565b5f5b8381101561042557808201518184015260208101905061040a565b5f8484015250505050565b5f601f19601f8301169050919050565b5f61044a826103ee565b61045481856103f8565b9350610464818560208601610408565b61046d81610430565b840191505092915050565b5f6060820190508181035f8301526104908186610440565b905081810360208301526104a48185610440565b905081810360408301526104b88184610440565b9050949350505050565b7f4e487b71000000000000000000000000000000000000000000000000000000005f52602260045260245ffd5b5f600282049050600182168061050657607f821691505b602082108103610519576105186104c2565b5b5091905056fea2646970667358221220beb56c50e5b45c51f3f233e9943fc6ababc77555555df4b7b8042b355d36bd4564736f6c63430008150033",
  "immutableReferences": {},
  "source": "// SPDX-License-Identifier: MIT\npragma solidity ^0.8.0;\n\ncontract Auction {\n // Properties\n address private owner;\n uint256 public startTime;\n uint256 public endTime;\n mapping(address => uint256) public bids;\n\n struct House {\n   string houseType;\n   string houseColor;\n   string houseLocation;\n }\n\n struct HighestBid {\n   uint256 bidAmount;\n   address bidder;\n }\n\n House public newHouse;\n HighestBid public highestBid;\n\n // Insert modifiers here\n // Insert events here\n // Insert constructor and function here\n\n}",
  "sourcePath": "/Users/magnus/development/education/INE5458/block-ticket/contracts/contracts/TestContract.sol",
  "compiler": {
    "name": "solc",
    "version": "0.8.21+commit.d9974bed.Emscripten.clang"
  },
  "schemaVersion": "3.4.16",
  "updatedAt": "2023-11-28T18:57:04.521Z",
  "devdoc": {
    "kind": "dev",
    "methods": {},
    "version": 1
  },
  "userdoc": {
    "kind": "user",
    "methods": {},
    "version": 1
  }
}