{
  "contractName": "TestContract",
  "abi": [
    {
      "inputs": [],
      "stateMutability": "nonpayable",
      "type": "constructor"
    },
    {
      "anonymous": false,
      "inputs": [
        {
          "indexed": true,
          "internalType": "address",
          "name": "_highestBidder",
          "type": "address"
        },
        {
          "indexed": false,
          "internalType": "uint256",
          "name": "_highestBid",
          "type": "uint256"
        }
      ],
      "name": "LogBid",
      "type": "event"
    },
    {
      "anonymous": false,
      "inputs": [
        {
          "indexed": true,
          "internalType": "address",
          "name": "_withdrawer",
          "type": "address"
        },
        {
          "indexed": false,
          "internalType": "uint256",
          "name": "amount",
          "type": "uint256"
        }
      ],
      "name": "LogWithdrawal",
      "type": "event"
    },
    {
      "inputs": [
        {
          "internalType": "address",
          "name": "",
          "type": "address"
        }
      ],
      "name": "bids",
      "outputs": [
        {
          "internalType": "uint256",
          "name": "",
          "type": "uint256"
        }
      ],
      "stateMutability": "view",
      "type": "function"
    },
    {
      "inputs": [],
      "name": "endTime",
      "outputs": [
        {
          "internalType": "uint256",
          "name": "",
          "type": "uint256"
        }
      ],
      "stateMutability": "view",
      "type": "function"
    },
    {
      "inputs": [],
      "name": "highestBid",
      "outputs": [
        {
          "internalType": "uint256",
          "name": "bidAmount",
          "type": "uint256"
        },
        {
          "internalType": "address",
          "name": "bidder",
          "type": "address"
        }
      ],
      "stateMutability": "view",
      "type": "function"
    },
    {
      "inputs": [],
      "name": "newHouse",
      "outputs": [
        {
          "internalType": "string",
          "name": "houseType",
          "type": "string"
        },
        {
          "internalType": "string",
          "name": "houseColor",
          "type": "string"
        },
        {
          "internalType": "string",
          "name": "houseLocation",
          "type": "string"
        }
      ],
      "stateMutability": "view",
      "type": "function"
    },
    {
      "inputs": [],
      "name": "startTime",
      "outputs": [
        {
          "internalType": "uint256",
          "name": "",
          "type": "uint256"
        }
      ],
      "stateMutability": "view",
      "type": "function"
    },
    {
      "inputs": [],
      "name": "makeBid",
      "outputs": [
        {
          "internalType": "bool",
          "name": "",
          "type": "bool"
        }
      ],
      "stateMutability": "payable",
      "type": "function"
    },
    {
      "inputs": [],
      "name": "withdraw",
      "outputs": [
        {
          "internalType": "bool",
          "name": "",
          "type": "bool"
        }
      ],
      "stateMutability": "nonpayable",
      "type": "function"
    },
    {
      "inputs": [],
      "name": "fetchHighestBid",
      "outputs": [
        {
          "components": [
            {
              "internalType": "uint256",
              "name": "bidAmount",
              "type": "uint256"
            },
            {
              "internalType": "address",
              "name": "bidder",
              "type": "address"
            }
          ],
          "internalType": "struct TestContract.HighestBid",
          "name": "",
          "type": "tuple"
        }
      ],
      "stateMutability": "view",
      "type": "function"
    },
    {
      "inputs": [],
      "name": "getOwner",
      "outputs": [
        {
          "internalType": "address",
          "name": "",
          "type": "address"
        }
      ],
      "stateMutability": "view",
      "type": "function"
    }
  ],
  "bytecode": "0x608060405234801562000010575f80fd5b50335f806101000a81548173ffffffffffffffffffffffffffffffffffffffff021916908373ffffffffffffffffffffffffffffffffffffffff16021790555042600181905550610e104262000067919062000186565b6002819055506040518060400160405280600781526020017f234646464646460000000000000000000000000000000000000000000000000081525060046001019081620000b691906200041b565b506040518060400160405280600881526020017f5361736b2c20534b000000000000000000000000000000000000000000000000815250600460020190816200010091906200041b565b506040518060400160405280600981526020017f546f776e686f757365000000000000000000000000000000000000000000000081525060045f0190816200014991906200041b565b50620004ff565b5f819050919050565b7f4e487b71000000000000000000000000000000000000000000000000000000005f52601160045260245ffd5b5f620001928262000150565b91506200019f8362000150565b9250828201905080821115620001ba57620001b962000159565b5b92915050565b5f81519050919050565b7f4e487b71000000000000000000000000000000000000000000000000000000005f52604160045260245ffd5b7f4e487b71000000000000000000000000000000000000000000000000000000005f52602260045260245ffd5b5f60028204905060018216806200023c57607f821691505b602082108103620002525762000251620001f7565b5b50919050565b5f819050815f5260205f209050919050565b5f6020601f8301049050919050565b5f82821b905092915050565b5f60088302620002b67fffffffffffffffffffffffffffffffffffffffffffffffffffffffffffffffff8262000279565b620002c2868362000279565b95508019841693508086168417925050509392505050565b5f819050919050565b5f62000303620002fd620002f78462000150565b620002da565b62000150565b9050919050565b5f819050919050565b6200031e83620002e3565b620003366200032d826200030a565b84845462000285565b825550505050565b5f90565b6200034c6200033e565b6200035981848462000313565b505050565b5b818110156200038057620003745f8262000342565b6001810190506200035f565b5050565b601f821115620003cf57620003998162000258565b620003a4846200026a565b81016020851015620003b4578190505b620003cc620003c3856200026a565b8301826200035e565b50505b505050565b5f82821c905092915050565b5f620003f15f1984600802620003d4565b1980831691505092915050565b5f6200040b8383620003e0565b9150826002028217905092915050565b6200042682620001c0565b67ffffffffffffffff811115620004425762000441620001ca565b5b6200044e825462000224565b6200045b82828562000384565b5f60209050601f83116001811462000491575f84156200047c578287015190505b620004888582620003fe565b865550620004f7565b601f198416620004a18662000258565b5f5b82811015620004ca57848901518255600182019150602085019450602081019050620004a3565b86831015620004ea5784890151620004e6601f891682620003e0565b8355505b6001600288020188555050505b505050505050565b610fe4806200050d5f395ff3fe608060405260043610610085575f3560e01c8063893d20e811610058578063893d20e814610143578063d57bde791461016d578063f30e365814610198578063f373c463146101b6578063fa481f86146101e057610085565b80633197cbb6146100895780633ccfd60b146100b357806362ea82db146100dd57806378e9792514610119575b5f80fd5b348015610094575f80fd5b5061009d61020c565b6040516100aa91906109e4565b60405180910390f35b3480156100be575f80fd5b506100c7610212565b6040516100d49190610a17565b60405180910390f35b3480156100e8575f80fd5b5061010360048036038101906100fe9190610a8e565b6104be565b60405161011091906109e4565b60405180910390f35b348015610124575f80fd5b5061012d6104d3565b60405161013a91906109e4565b60405180910390f35b34801561014e575f80fd5b506101576104d9565b6040516101649190610ac8565b60405180910390f35b348015610178575f80fd5b50610181610500565b60405161018f929190610ae1565b60405180910390f35b6101a0610530565b6040516101ad9190610a17565b60405180910390f35b3480156101c1575f80fd5b506101ca610778565b6040516101d79190610b53565b60405180910390f35b3480156101eb575f80fd5b506101f46107f5565b60405161020393929190610bf6565b60405180910390f35b60025481565b5f600254421015610258576040517f08c379a000000000000000000000000000000000000000000000000000000000815260040161024f90610c8a565b60405180910390fd5b5f8054906101000a900473ffffffffffffffffffffffffffffffffffffffff1673ffffffffffffffffffffffffffffffffffffffff163373ffffffffffffffffffffffffffffffffffffffff16146102e5576040517f08c379a00000000000000000000000000000000000000000000000000000000081526004016102dc90610cf2565b60405180910390fd5b5f60075f015490505f60035f60076001015f9054906101000a900473ffffffffffffffffffffffffffffffffffffffff1673ffffffffffffffffffffffffffffffffffffffff1673ffffffffffffffffffffffffffffffffffffffff1681526020019081526020015f20819055505f60076001015f6101000a81548173ffffffffffffffffffffffffffffffffffffffff021916908373ffffffffffffffffffffffffffffffffffffffff1602179055505f60075f01819055505f805f9054906101000a900473ffffffffffffffffffffffffffffffffffffffff1673ffffffffffffffffffffffffffffffffffffffff16826040516103e490610d3d565b5f6040518083038185875af1925050503d805f811461041e576040519150601f19603f3d011682016040523d82523d5f602084013e610423565b606091505b5050905080610467576040517f08c379a000000000000000000000000000000000000000000000000000000000815260040161045e90610d9b565b60405180910390fd5b3373ffffffffffffffffffffffffffffffffffffffff167fb4214c8c54fc7442f36d3682f59aebaf09358a4431835b30efb29d52cf9e1e91836040516104ad91906109e4565b60405180910390a260019250505090565b6003602052805f5260405f205f915090505481565b60015481565b5f805f9054906101000a900473ffffffffffffffffffffffffffffffffffffffff16905090565b6007805f015490806001015f9054906101000a900473ffffffffffffffffffffffffffffffffffffffff16905082565b5f6002544210610575576040517f08c379a000000000000000000000000000000000000000000000000000000000815260040161056c90610e03565b60405180910390fd5b5f8054906101000a900473ffffffffffffffffffffffffffffffffffffffff1673ffffffffffffffffffffffffffffffffffffffff163373ffffffffffffffffffffffffffffffffffffffff1603610602576040517f08c379a00000000000000000000000000000000000000000000000000000000081526004016105f990610e6b565b60405180910390fd5b5f3460035f3373ffffffffffffffffffffffffffffffffffffffff1673ffffffffffffffffffffffffffffffffffffffff1681526020019081526020015f205461064c9190610eb6565b905060075f01548111610694576040517f08c379a000000000000000000000000000000000000000000000000000000000815260040161068b90610f33565b60405180910390fd5b3360076001015f6101000a81548173ffffffffffffffffffffffffffffffffffffffff021916908373ffffffffffffffffffffffffffffffffffffffff1602179055508060075f01819055508060035f3373ffffffffffffffffffffffffffffffffffffffff1673ffffffffffffffffffffffffffffffffffffffff1681526020019081526020015f20819055503373ffffffffffffffffffffffffffffffffffffffff167f5331b3a4532c2507900f549683f076c051f92222c177b52f82f140d8667d3ebf8260405161076891906109e4565b60405180910390a2600191505090565b61078061099e565b5f60076040518060400160405290815f8201548152602001600182015f9054906101000a900473ffffffffffffffffffffffffffffffffffffffff1673ffffffffffffffffffffffffffffffffffffffff1673ffffffffffffffffffffffffffffffffffffffff168152505090508091505090565b6004805f01805461080590610f7e565b80601f016020809104026020016040519081016040528092919081815260200182805461083190610f7e565b801561087c5780601f106108535761010080835404028352916020019161087c565b820191905f5260205f20905b81548152906001019060200180831161085f57829003601f168201915b50505050509080600101805461089190610f7e565b80601f01602080910402602001604051908101604052809291908181526020018280546108bd90610f7e565b80156109085780601f106108df57610100808354040283529160200191610908565b820191905f5260205f20905b8154815290600101906020018083116108eb57829003601f168201915b50505050509080600201805461091d90610f7e565b80601f016020809104026020016040519081016040528092919081815260200182805461094990610f7e565b80156109945780601f1061096b57610100808354040283529160200191610994565b820191905f5260205f20905b81548152906001019060200180831161097757829003601f168201915b5050505050905083565b60405180604001604052805f81526020015f73ffffffffffffffffffffffffffffffffffffffff1681525090565b5f819050919050565b6109de816109cc565b82525050565b5f6020820190506109f75f8301846109d5565b92915050565b5f8115159050919050565b610a11816109fd565b82525050565b5f602082019050610a2a5f830184610a08565b92915050565b5f80fd5b5f73ffffffffffffffffffffffffffffffffffffffff82169050919050565b5f610a5d82610a34565b9050919050565b610a6d81610a53565b8114610a77575f80fd5b50565b5f81359050610a8881610a64565b92915050565b5f60208284031215610aa357610aa2610a30565b5b5f610ab084828501610a7a565b91505092915050565b610ac281610a53565b82525050565b5f602082019050610adb5f830184610ab9565b92915050565b5f604082019050610af45f8301856109d5565b610b016020830184610ab9565b9392505050565b610b11816109cc565b82525050565b610b2081610a53565b82525050565b604082015f820151610b3a5f850182610b08565b506020820151610b4d6020850182610b17565b50505050565b5f604082019050610b665f830184610b26565b92915050565b5f81519050919050565b5f82825260208201905092915050565b5f5b83811015610ba3578082015181840152602081019050610b88565b5f8484015250505050565b5f601f19601f8301169050919050565b5f610bc882610b6c565b610bd28185610b76565b9350610be2818560208601610b86565b610beb81610bae565b840191505092915050565b5f6060820190508181035f830152610c0e8186610bbe565b90508181036020830152610c228185610bbe565b90508181036040830152610c368184610bbe565b9050949350505050565b7f546869732061756374696f6e206973207374696c6c206f70656e2e00000000005f82015250565b5f610c74601b83610b76565b9150610c7f82610c40565b602082019050919050565b5f6020820190508181035f830152610ca181610c68565b9050919050565b7f4f6e6c79206f776e65722063616e20706572666f726d207461736b2e000000005f82015250565b5f610cdc601c83610b76565b9150610ce782610ca8565b602082019050919050565b5f6020820190508181035f830152610d0981610cd0565b9050919050565b5f81905092915050565b50565b5f610d285f83610d10565b9150610d3382610d1a565b5f82019050919050565b5f610d4782610d1d565b9150819050919050565b7f5769746864726177616c206661696c65642e00000000000000000000000000005f82015250565b5f610d85601283610b76565b9150610d9082610d51565b602082019050919050565b5f6020820190508181035f830152610db281610d79565b9050919050565b7f546869732061756374696f6e20697320636c6f7365642e0000000000000000005f82015250565b5f610ded601783610b76565b9150610df882610db9565b602082019050919050565b5f6020820190508181035f830152610e1a81610de1565b9050919050565b7f4f776e6572206973206e6f7420616c6c6f77656420746f206269642e000000005f82015250565b5f610e55601c83610b76565b9150610e6082610e21565b602082019050919050565b5f6020820190508181035f830152610e8281610e49565b9050919050565b7f4e487b71000000000000000000000000000000000000000000000000000000005f52601160045260245ffd5b5f610ec0826109cc565b9150610ecb836109cc565b9250828201905080821115610ee357610ee2610e89565b5b92915050565b7f426964206572726f723a204d616b65206120686967686572204269642e0000005f82015250565b5f610f1d601d83610b76565b9150610f2882610ee9565b602082019050919050565b5f6020820190508181035f830152610f4a81610f11565b9050919050565b7f4e487b71000000000000000000000000000000000000000000000000000000005f52602260045260245ffd5b5f6002820490506001821680610f9557607f821691505b602082108103610fa857610fa7610f51565b5b5091905056fea26469706673582212207d69f95cf018324e85f73c2851af7751a69b108292ba160461c68da5a5c21ef664736f6c63430008150033",
  "immutableReferences": {},
  "source": "// SPDX-License-Identifier: MIT\npragma solidity ^0.8.0;\n\ncontract TestContract {\n // Properties\n address private owner;\n uint256 public startTime;\n uint256 public endTime;\n mapping(address => uint256) public bids;\n\n struct House {\n   string houseType;\n   string houseColor;\n   string houseLocation;\n }\n\n struct HighestBid {\n   uint256 bidAmount;\n   address bidder;\n }\n\n House public newHouse;\n HighestBid public highestBid;\n\n// Modifiers\n modifier isOngoing() {\n   require(block.timestamp < endTime, 'This auction is closed.');\n   _;\n }\n modifier notOngoing() {\n   require(block.timestamp >= endTime, 'This auction is still open.');\n   _;\n }\n modifier isOwner() {\n   require(msg.sender == owner, 'Only owner can perform task.');\n   _;\n }\n modifier notOwner() {\n   require(msg.sender != owner, 'Owner is not allowed to bid.');\n   _;\n }\n\n\n event LogBid(address indexed _highestBidder, uint256 _highestBid);\n event LogWithdrawal(address indexed _withdrawer, uint256 amount);\n\n constructor () {\n   owner = msg.sender;\n   startTime = block.timestamp;\n   endTime = block.timestamp + 1 hours;\n   newHouse.houseColor = '#FFFFFF';\n   newHouse.houseLocation = 'Sask, SK';\n   newHouse.houseType = 'Townhouse';\n }\n\n function makeBid() public payable isOngoing() notOwner() returns (bool) {\n   uint256 bidAmount = bids[msg.sender] + msg.value;\n   require(bidAmount > highestBid.bidAmount, 'Bid error: Make a higher Bid.');\n\n   highestBid.bidder = msg.sender;\n   highestBid.bidAmount = bidAmount;\n   bids[msg.sender] = bidAmount;\n   emit LogBid(msg.sender, bidAmount);\n   return true;\n }\n\n function withdraw() public notOngoing() isOwner() returns (bool) {\n   uint256 amount = highestBid.bidAmount;\n   bids[highestBid.bidder] = 0;\n   highestBid.bidder = address(0);\n   highestBid.bidAmount = 0;\n\n   (bool success, ) = payable(owner).call{ value: amount }(\"\");\n   require(success, 'Withdrawal failed.');\n   emit LogWithdrawal(msg.sender, amount);\n   return true;\n }\n\n function fetchHighestBid() public view returns (HighestBid memory) {\n   HighestBid memory _highestBid = highestBid;\n   return _highestBid;\n }\n\n function getOwner() public view returns (address) {\n   return owner;\n }\n\n}",
  "sourcePath": "/Users/magnus/development/education/INE5458/block-ticket/contracts/contracts/TestContract.sol",
  "compiler": {
    "name": "solc",
    "version": "0.8.21+commit.d9974bed.Emscripten.clang"
  },
  "schemaVersion": "3.4.16",
  "updatedAt": "2023-11-29T19:23:19.717Z",
  "devdoc": {
    "kind": "dev",
    "methods": {},
    "version": 1
  },
  "userdoc": {
    "kind": "user",
    "methods": {},
    "version": 1
  }
}