{
  "contractName": "TicketContract",
  "abi": [
    {
      "inputs": [],
      "stateMutability": "nonpayable",
      "type": "constructor"
    },
    {
      "anonymous": false,
      "inputs": [
        {
          "indexed": true,
          "internalType": "uint256",
          "name": "eventId",
          "type": "uint256"
        },
        {
          "indexed": false,
          "internalType": "string",
          "name": "eventName",
          "type": "string"
        },
        {
          "indexed": true,
          "internalType": "address",
          "name": "organizer",
          "type": "address"
        }
      ],
      "name": "EventCreated",
      "type": "event"
    },
    {
      "anonymous": false,
      "inputs": [
        {
          "indexed": true,
          "internalType": "address",
          "name": "organizerAddress",
          "type": "address"
        },
        {
          "indexed": false,
          "internalType": "string",
          "name": "organizerName",
          "type": "string"
        }
      ],
      "name": "OrganizerCreated",
      "type": "event"
    },
    {
      "anonymous": false,
      "inputs": [
        {
          "indexed": true,
          "internalType": "address",
          "name": "userAddress",
          "type": "address"
        },
        {
          "indexed": false,
          "internalType": "string",
          "name": "username",
          "type": "string"
        }
      ],
      "name": "UserRegistered",
      "type": "event"
    },
    {
      "inputs": [],
      "name": "eventCounter",
      "outputs": [
        {
          "internalType": "uint256",
          "name": "",
          "type": "uint256"
        }
      ],
      "stateMutability": "view",
      "type": "function",
      "constant": true
    },
    {
      "inputs": [
        {
          "internalType": "uint256",
          "name": "",
          "type": "uint256"
        }
      ],
      "name": "events",
      "outputs": [
        {
          "internalType": "string",
          "name": "eventName",
          "type": "string"
        },
        {
          "internalType": "address",
          "name": "organizer",
          "type": "address"
        }
      ],
      "stateMutability": "view",
      "type": "function",
      "constant": true
    },
    {
      "inputs": [],
      "name": "owner",
      "outputs": [
        {
          "internalType": "address",
          "name": "",
          "type": "address"
        }
      ],
      "stateMutability": "view",
      "type": "function",
      "constant": true
    },
    {
      "inputs": [
        {
          "internalType": "address",
          "name": "",
          "type": "address"
        }
      ],
      "name": "users",
      "outputs": [
        {
          "internalType": "string",
          "name": "username",
          "type": "string"
        },
        {
          "internalType": "address",
          "name": "walletAddress",
          "type": "address"
        },
        {
          "internalType": "bytes32",
          "name": "secretKeyHash",
          "type": "bytes32"
        },
        {
          "internalType": "bool",
          "name": "isOrganiser",
          "type": "bool"
        }
      ],
      "stateMutability": "view",
      "type": "function",
      "constant": true
    },
    {
      "inputs": [
        {
          "internalType": "string",
          "name": "",
          "type": "string"
        }
      ],
      "name": "usersByUsername",
      "outputs": [
        {
          "internalType": "string",
          "name": "username",
          "type": "string"
        },
        {
          "internalType": "address",
          "name": "walletAddress",
          "type": "address"
        },
        {
          "internalType": "bytes32",
          "name": "secretKeyHash",
          "type": "bytes32"
        },
        {
          "internalType": "bool",
          "name": "isOrganiser",
          "type": "bool"
        }
      ],
      "stateMutability": "view",
      "type": "function",
      "constant": true
    },
    {
      "inputs": [
        {
          "internalType": "string",
          "name": "_username",
          "type": "string"
        },
        {
          "internalType": "bool",
          "name": "_isOrganiser",
          "type": "bool"
        }
      ],
      "name": "registerUser",
      "outputs": [],
      "stateMutability": "nonpayable",
      "type": "function"
    },
    {
      "inputs": [
        {
          "internalType": "string",
          "name": "_eventName",
          "type": "string"
        },
        {
          "internalType": "string",
          "name": "_organizerName",
          "type": "string"
        }
      ],
      "name": "createEvent",
      "outputs": [
        {
          "internalType": "uint256",
          "name": "",
          "type": "uint256"
        }
      ],
      "stateMutability": "nonpayable",
      "type": "function"
    },
    {
      "inputs": [
        {
          "internalType": "uint256",
          "name": "_eventId",
          "type": "uint256"
        }
      ],
      "name": "getEventDetails",
      "outputs": [
        {
          "internalType": "string",
          "name": "",
          "type": "string"
        },
        {
          "internalType": "address",
          "name": "",
          "type": "address"
        }
      ],
      "stateMutability": "view",
      "type": "function",
      "constant": true
    },
    {
      "inputs": [
        {
          "internalType": "address",
          "name": "_userAddress",
          "type": "address"
        }
      ],
      "name": "getUserDetails",
      "outputs": [
        {
          "internalType": "string",
          "name": "",
          "type": "string"
        },
        {
          "internalType": "address",
          "name": "",
          "type": "address"
        },
        {
          "internalType": "bytes32",
          "name": "",
          "type": "bytes32"
        }
      ],
      "stateMutability": "view",
      "type": "function",
      "constant": true
    },
    {
      "inputs": [
        {
          "internalType": "string",
          "name": "_username",
          "type": "string"
        }
      ],
      "name": "checkUserExistence",
      "outputs": [
        {
          "internalType": "bool",
          "name": "",
          "type": "bool"
        },
        {
          "internalType": "string",
          "name": "",
          "type": "string"
        },
        {
          "internalType": "string",
          "name": "",
          "type": "string"
        }
      ],
      "stateMutability": "view",
      "type": "function",
      "constant": true
    }
  ],
  "bytecode": "0x608060405234801561000f575f80fd5b50335f806101000a81548173ffffffffffffffffffffffffffffffffffffffff021916908373ffffffffffffffffffffffffffffffffffffffff160217905550611cb38061005c5f395ff3fe608060405234801561000f575f80fd5b506004361061009c575f3560e01c80638da5cb5b116100645780638da5cb5b14610170578063a87430ba1461018e578063cc3d967b146101c1578063e257a94c146101f3578063ec38d5a0146102235761009c565b80630b791430146100a057806352c55db9146100d15780635ac23133146100ef57806379b233db146101225780638ae206031461013e575b5f80fd5b6100ba60048036038101906100b59190610fd2565b610254565b6040516100c89291906110c6565b60405180910390f35b6100d9610319565b6040516100e69190611103565b60405180910390f35b61010960048036038101906101049190611248565b61031f565b60405161011994939291906112c1565b60405180910390f35b61013c60048036038101906101379190611335565b610414565b005b61015860048036038101906101539190611248565b610766565b6040516101679392919061138f565b60405180910390f35b610178610892565b60405161018591906113d2565b60405180910390f35b6101a860048036038101906101a39190611415565b6108b5565b6040516101b894939291906112c1565b60405180910390f35b6101db60048036038101906101d69190611415565b610992565b6040516101ea93929190611440565b60405180910390f35b61020d6004803603810190610208919061147c565b610b0d565b60405161021a9190611103565b60405180910390f35b61023d60048036038101906102389190610fd2565b610e7e565b60405161024b9291906110c6565b60405180910390f35b6002602052805f5260405f205f91509050805f0180546102739061151f565b80601f016020809104026020016040519081016040528092919081815260200182805461029f9061151f565b80156102ea5780601f106102c1576101008083540402835291602001916102ea565b820191905f5260205f20905b8154815290600101906020018083116102cd57829003601f168201915b505050505090806001015f9054906101000a900473ffffffffffffffffffffffffffffffffffffffff16905082565b60045481565b6003818051602081018201805184825260208301602085012081835280955050505050505f91509050805f0180546103569061151f565b80601f01602080910402602001604051908101604052809291908181526020018280546103829061151f565b80156103cd5780601f106103a4576101008083540402835291602001916103cd565b820191905f5260205f20905b8154815290600101906020018083116103b057829003601f168201915b505050505090806001015f9054906101000a900473ffffffffffffffffffffffffffffffffffffffff1690806002015490806003015f9054906101000a900460ff16905084565b5f825111610457576040517f08c379a000000000000000000000000000000000000000000000000000000000815260040161044e90611599565b60405180910390fd5b5f73ffffffffffffffffffffffffffffffffffffffff1660038360405161047e91906115f1565b90815260200160405180910390206001015f9054906101000a900473ffffffffffffffffffffffffffffffffffffffff1673ffffffffffffffffffffffffffffffffffffffff1614610505576040517f08c379a00000000000000000000000000000000000000000000000000000000081526004016104fc90611651565b60405180910390fd5b5f33434060405160200161051a9291906116d4565b604051602081830303815290604052805190602001205f1c90505f434090505f61054382610f5b565b90505f60405180608001604052808781526020018573ffffffffffffffffffffffffffffffffffffffff1681526020018360405160200161058491906116ff565b60405160208183030381529060405280519060200120815260200186151581525090508060015f8673ffffffffffffffffffffffffffffffffffffffff1673ffffffffffffffffffffffffffffffffffffffff1681526020019081526020015f205f820151815f0190816105f891906118b6565b506020820151816001015f6101000a81548173ffffffffffffffffffffffffffffffffffffffff021916908373ffffffffffffffffffffffffffffffffffffffff160217905550604082015181600201556060820151816003015f6101000a81548160ff0219169083151502179055509050508060038760405161067c91906115f1565b90815260200160405180910390205f820151815f01908161069d91906118b6565b506020820151816001015f6101000a81548173ffffffffffffffffffffffffffffffffffffffff021916908373ffffffffffffffffffffffffffffffffffffffff160217905550604082015181600201556060820151816003015f6101000a81548160ff0219169083151502179055509050508373ffffffffffffffffffffffffffffffffffffffff167f48cac28ad4dc618e15f4c2dd5e97751182f166de97b25618318b2112aa951a2f876040516107569190611985565b60405180910390a2505050505050565b5f6060805f73ffffffffffffffffffffffffffffffffffffffff1660038560405161079191906115f1565b90815260200160405180910390206001015f9054906101000a900473ffffffffffffffffffffffffffffffffffffffff1673ffffffffffffffffffffffffffffffffffffffff1614156003856040516107ea91906115f1565b90815260200160405180910390205f01858180546108079061151f565b80601f01602080910402602001604051908101604052809291908181526020018280546108339061151f565b801561087e5780601f106108555761010080835404028352916020019161087e565b820191905f5260205f20905b81548152906001019060200180831161086157829003601f168201915b505050505091509250925092509193909250565b5f8054906101000a900473ffffffffffffffffffffffffffffffffffffffff1681565b6001602052805f5260405f205f91509050805f0180546108d49061151f565b80601f01602080910402602001604051908101604052809291908181526020018280546109009061151f565b801561094b5780601f106109225761010080835404028352916020019161094b565b820191905f5260205f20905b81548152906001019060200180831161092e57829003601f168201915b505050505090806001015f9054906101000a900473ffffffffffffffffffffffffffffffffffffffff1690806002015490806003015f9054906101000a900460ff16905084565b60605f8060015f8573ffffffffffffffffffffffffffffffffffffffff1673ffffffffffffffffffffffffffffffffffffffff1681526020019081526020015f205f0160015f8673ffffffffffffffffffffffffffffffffffffffff1673ffffffffffffffffffffffffffffffffffffffff1681526020019081526020015f206001015f9054906101000a900473ffffffffffffffffffffffffffffffffffffffff1660015f8773ffffffffffffffffffffffffffffffffffffffff1673ffffffffffffffffffffffffffffffffffffffff1681526020019081526020015f2060020154828054610a829061151f565b80601f0160208091040260200160405190810160405280929190818152602001828054610aae9061151f565b8015610af95780601f10610ad057610100808354040283529160200191610af9565b820191905f5260205f20905b815481529060010190602001808311610adc57829003601f168201915b505050505092509250925092509193909250565b5f805f9054906101000a900473ffffffffffffffffffffffffffffffffffffffff1673ffffffffffffffffffffffffffffffffffffffff163373ffffffffffffffffffffffffffffffffffffffff1614610b9c576040517f08c379a0000000000000000000000000000000000000000000000000000000008152600401610b93906119ef565b60405180910390fd5b5f835111610bdf576040517f08c379a0000000000000000000000000000000000000000000000000000000008152600401610bd690611a57565b60405180910390fd5b5f825111610c22576040517f08c379a0000000000000000000000000000000000000000000000000000000008152600401610c1990611abf565b60405180910390fd5b60045f815480929190610c3490611b0a565b91905055505f600383604051610c4a91906115f1565b908152602001604051809103902090505f73ffffffffffffffffffffffffffffffffffffffff16816001015f9054906101000a900473ffffffffffffffffffffffffffffffffffffffff1673ffffffffffffffffffffffffffffffffffffffff1603610ceb576040517f08c379a0000000000000000000000000000000000000000000000000000000008152600401610ce290611b9b565b60405180910390fd5b806003015f9054906101000a900460ff16610d3b576040517f08c379a0000000000000000000000000000000000000000000000000000000008152600401610d3290611c03565b60405180910390fd5b5f6040518060400160405280868152602001836001015f9054906101000a900473ffffffffffffffffffffffffffffffffffffffff1673ffffffffffffffffffffffffffffffffffffffff1681525090508060025f60045481526020019081526020015f205f820151815f019081610db391906118b6565b506020820151816001015f6101000a81548173ffffffffffffffffffffffffffffffffffffffff021916908373ffffffffffffffffffffffffffffffffffffffff160217905550905050816001015f9054906101000a900473ffffffffffffffffffffffffffffffffffffffff1673ffffffffffffffffffffffffffffffffffffffff166004547f40fb05b814a900c99fa0a76d919dfdeaf3389540e4ca70f97ba40ca9a38f379787604051610e699190611985565b60405180910390a36004549250505092915050565b60605f60025f8481526020019081526020015f205f0160025f8581526020019081526020015f206001015f9054906101000a900473ffffffffffffffffffffffffffffffffffffffff16818054610ed49061151f565b80601f0160208091040260200160405190810160405280929190818152602001828054610f009061151f565b8015610f4b5780601f10610f2257610100808354040283529160200191610f4b565b820191905f5260205f20905b815481529060010190602001808311610f2e57829003601f168201915b5050505050915091509150915091565b5f814233604051602001610f7193929190611c41565b604051602081830303815290604052805190602001209050919050565b5f604051905090565b5f80fd5b5f80fd5b5f819050919050565b610fb181610f9f565b8114610fbb575f80fd5b50565b5f81359050610fcc81610fa8565b92915050565b5f60208284031215610fe757610fe6610f97565b5b5f610ff484828501610fbe565b91505092915050565b5f81519050919050565b5f82825260208201905092915050565b5f5b83811015611034578082015181840152602081019050611019565b5f8484015250505050565b5f601f19601f8301169050919050565b5f61105982610ffd565b6110638185611007565b9350611073818560208601611017565b61107c8161103f565b840191505092915050565b5f73ffffffffffffffffffffffffffffffffffffffff82169050919050565b5f6110b082611087565b9050919050565b6110c0816110a6565b82525050565b5f6040820190508181035f8301526110de818561104f565b90506110ed60208301846110b7565b9392505050565b6110fd81610f9f565b82525050565b5f6020820190506111165f8301846110f4565b92915050565b5f80fd5b5f80fd5b7f4e487b71000000000000000000000000000000000000000000000000000000005f52604160045260245ffd5b61115a8261103f565b810181811067ffffffffffffffff8211171561117957611178611124565b5b80604052505050565b5f61118b610f8e565b90506111978282611151565b919050565b5f67ffffffffffffffff8211156111b6576111b5611124565b5b6111bf8261103f565b9050602081019050919050565b828183375f83830152505050565b5f6111ec6111e78461119c565b611182565b90508281526020810184848401111561120857611207611120565b5b6112138482856111cc565b509392505050565b5f82601f83011261122f5761122e61111c565b5b813561123f8482602086016111da565b91505092915050565b5f6020828403121561125d5761125c610f97565b5b5f82013567ffffffffffffffff81111561127a57611279610f9b565b5b6112868482850161121b565b91505092915050565b5f819050919050565b6112a18161128f565b82525050565b5f8115159050919050565b6112bb816112a7565b82525050565b5f6080820190508181035f8301526112d9818761104f565b90506112e860208301866110b7565b6112f56040830185611298565b61130260608301846112b2565b95945050505050565b611314816112a7565b811461131e575f80fd5b50565b5f8135905061132f8161130b565b92915050565b5f806040838503121561134b5761134a610f97565b5b5f83013567ffffffffffffffff81111561136857611367610f9b565b5b6113748582860161121b565b925050602061138585828601611321565b9150509250929050565b5f6060820190506113a25f8301866112b2565b81810360208301526113b4818561104f565b905081810360408301526113c8818461104f565b9050949350505050565b5f6020820190506113e55f8301846110b7565b92915050565b6113f4816110a6565b81146113fe575f80fd5b50565b5f8135905061140f816113eb565b92915050565b5f6020828403121561142a57611429610f97565b5b5f61143784828501611401565b91505092915050565b5f6060820190508181035f830152611458818661104f565b905061146760208301856110b7565b6114746040830184611298565b949350505050565b5f806040838503121561149257611491610f97565b5b5f83013567ffffffffffffffff8111156114af576114ae610f9b565b5b6114bb8582860161121b565b925050602083013567ffffffffffffffff8111156114dc576114db610f9b565b5b6114e88582860161121b565b9150509250929050565b7f4e487b71000000000000000000000000000000000000000000000000000000005f52602260045260245ffd5b5f600282049050600182168061153657607f821691505b602082108103611549576115486114f2565b5b50919050565b7f557365726e616d652063616e6e6f7420626520656d70747900000000000000005f82015250565b5f611583601883611007565b915061158e8261154f565b602082019050919050565b5f6020820190508181035f8301526115b081611577565b9050919050565b5f81905092915050565b5f6115cb82610ffd565b6115d581856115b7565b93506115e5818560208601611017565b80840191505092915050565b5f6115fc82846115c1565b915081905092915050565b7f557365726e616d6520616c7265616479207265676973746572656400000000005f82015250565b5f61163b601b83611007565b915061164682611607565b602082019050919050565b5f6020820190508181035f8301526116688161162f565b9050919050565b5f8160601b9050919050565b5f6116858261166f565b9050919050565b5f6116968261167b565b9050919050565b6116ae6116a9826110a6565b61168c565b82525050565b5f819050919050565b6116ce6116c98261128f565b6116b4565b82525050565b5f6116df828561169d565b6014820191506116ef82846116bd565b6020820191508190509392505050565b5f61170a82846116bd565b60208201915081905092915050565b5f819050815f5260205f209050919050565b5f6020601f8301049050919050565b5f82821b905092915050565b5f600883026117757fffffffffffffffffffffffffffffffffffffffffffffffffffffffffffffffff8261173a565b61177f868361173a565b95508019841693508086168417925050509392505050565b5f819050919050565b5f6117ba6117b56117b084610f9f565b611797565b610f9f565b9050919050565b5f819050919050565b6117d3836117a0565b6117e76117df826117c1565b848454611746565b825550505050565b5f90565b6117fb6117ef565b6118068184846117ca565b505050565b5b818110156118295761181e5f826117f3565b60018101905061180c565b5050565b601f82111561186e5761183f81611719565b6118488461172b565b81016020851015611857578190505b61186b6118638561172b565b83018261180b565b50505b505050565b5f82821c905092915050565b5f61188e5f1984600802611873565b1980831691505092915050565b5f6118a6838361187f565b9150826002028217905092915050565b6118bf82610ffd565b67ffffffffffffffff8111156118d8576118d7611124565b5b6118e2825461151f565b6118ed82828561182d565b5f60209050601f83116001811461191e575f841561190c578287015190505b611916858261189b565b86555061197d565b601f19841661192c86611719565b5f5b828110156119535784890151825560018201915060208501945060208101905061192e565b86831015611970578489015161196c601f89168261187f565b8355505b6001600288020188555050505b505050505050565b5f6020820190508181035f83015261199d818461104f565b905092915050565b7f4e6f742074686520636f6e7472616374206f776e6572000000000000000000005f82015250565b5f6119d9601683611007565b91506119e4826119a5565b602082019050919050565b5f6020820190508181035f830152611a06816119cd565b9050919050565b7f4576656e74206e616d652063616e6e6f7420626520656d7074790000000000005f82015250565b5f611a41601a83611007565b9150611a4c82611a0d565b602082019050919050565b5f6020820190508181035f830152611a6e81611a35565b9050919050565b7f4f7267616e697a6572206e616d652063616e6e6f7420626520656d70747900005f82015250565b5f611aa9601e83611007565b9150611ab482611a75565b602082019050919050565b5f6020820190508181035f830152611ad681611a9d565b9050919050565b7f4e487b71000000000000000000000000000000000000000000000000000000005f52601160045260245ffd5b5f611b1482610f9f565b91507fffffffffffffffffffffffffffffffffffffffffffffffffffffffffffffffff8203611b4657611b45611add565b5b600182019050919050565b7f4f7267616e697a657220646f6573206e6f7420657869737400000000000000005f82015250565b5f611b85601883611007565b9150611b9082611b51565b602082019050919050565b5f6020820190508181035f830152611bb281611b79565b9050919050565b7f55736572206973206e6f7420616e206f7267616e697a657200000000000000005f82015250565b5f611bed601883611007565b9150611bf882611bb9565b602082019050919050565b5f6020820190508181035f830152611c1a81611be1565b9050919050565b5f819050919050565b611c3b611c3682610f9f565b611c21565b82525050565b5f611c4c82866116bd565b602082019150611c5c8285611c2a565b602082019150611c6c828461169d565b60148201915081905094935050505056fea26469706673582212208ca1905f39e0385376f3421e2592a39ba61ea94b0fd7e8d815e19e207d06b43c64736f6c63430008150033",
  "immutableReferences": {},
  "source": "// SPDX-License-Identifier: MIT\npragma solidity ^0.8.0;\n\ncontract TicketContract {\n    address public owner;\n\n    // Struct to represent a user\n    struct User {\n        string username;\n        address walletAddress;\n        bytes32 secretKeyHash; // Hash of the secret key\n        bool isOrganiser;\n    }\n\n    // Struct to represent an event\n    struct Event {\n        string eventName;\n        address organizer;\n    }\n\n    // Mapping to store users\n    mapping(address => User) public users;\n\n    // Mapping to store events\n    mapping(uint256 => Event) public events;\n\n    // Mapping to store users by username\n    mapping(string => User) public usersByUsername;\n\n    // Counter for event IDs\n    uint256 public eventCounter;\n\n    // Event to log user registration\n    event UserRegistered(address indexed userAddress, string username);\n\n    // Event to log event creation\n    event EventCreated(uint256 indexed eventId, string eventName, address indexed organizer);\n\n    // Event to log organizer creation\n    event OrganizerCreated(address indexed organizerAddress, string organizerName);\n\n    // Modifier to ensure only the contract owner can execute certain functions\n    modifier onlyOwner() {\n        require(msg.sender == owner, \"Not the contract owner\");\n        _;\n    }\n\n    // Constructor to set the contract owner\n    constructor() {\n        owner = msg.sender;\n    }\n\n    // Function to generate a random secret key\n    function generateRandomSecretKey(bytes32 _blockHash) internal view returns (bytes32) {\n        return keccak256(abi.encodePacked(_blockHash, block.timestamp, msg.sender));\n    }\n\n// Function to register a new user\nfunction registerUser(string memory _username, bool _isOrganiser) public {\n    require(bytes(_username).length > 0, \"Username cannot be empty\");\n    require(usersByUsername[_username].walletAddress == address(0), \"Username already registered\");\n\n    // Generate a new address based on the current user's address and some randomness\n    address newUserAddress = address(uint160(uint256(keccak256(abi.encodePacked(msg.sender, blockhash(block.number))))));\n\n    // Get the block hash of the current block\n    bytes32 blockHash = blockhash(block.number);\n\n    // Generate a random secret key for the user\n    bytes32 secretKey = generateRandomSecretKey(blockHash);\n\n    // Create a new user\n    User memory newUser = User({\n        username: _username,\n        walletAddress: newUserAddress,\n        secretKeyHash: keccak256(abi.encodePacked(secretKey)),\n        isOrganiser: _isOrganiser\n    });\n\n    // Store the user in the mapping\n    users[newUserAddress] = newUser;\n    usersByUsername[_username] = newUser;\n\n    // Emit the UserRegistered event\n    emit UserRegistered(newUserAddress, _username);\n}\n\n\n// Function to create a new event\nfunction createEvent(string memory _eventName, string memory _organizerName) public onlyOwner returns (uint256) {\n    require(bytes(_eventName).length > 0, \"Event name cannot be empty\");\n    require(bytes(_organizerName).length > 0, \"Organizer name cannot be empty\");\n\n    // Increment eventCounter to get a unique event ID\n    eventCounter++;\n\n    // Get the user based on the provided organizer name\n    User storage organizer = usersByUsername[_organizerName];\n\n    // Check if the organizer exists and is an organizer\n    require(organizer.walletAddress != address(0), \"Organizer does not exist\");\n    require(organizer.isOrganiser, \"User is not an organizer\");\n\n    // Create a new event\n    Event memory newEvent = Event({\n        eventName: _eventName,\n        organizer: organizer.walletAddress\n    });\n\n    // Store the event in the mapping\n    events[eventCounter] = newEvent;\n\n    // Emit the EventCreated event\n    emit EventCreated(eventCounter, _eventName, organizer.walletAddress);\n\n    return eventCounter;\n}\n\n    // Function to get event details by ID\n    function getEventDetails(uint256 _eventId) public view returns (string memory, address) {\n        return (events[_eventId].eventName, events[_eventId].organizer);\n    }\n\n    // Function to get user details by address\n    function getUserDetails(address _userAddress) public view returns (string memory, address, bytes32) {\n        return (users[_userAddress].username, users[_userAddress].walletAddress, users[_userAddress].secretKeyHash);\n    }\n    \n    // Function to check if a user with a given username exists\n    function checkUserExistence(string memory _username) public view returns (bool, string memory, string memory) {\n    return (\n        usersByUsername[_username].walletAddress != address(0),\n        usersByUsername[_username].username,\n        _username\n    );\n    }\n}\n",
  "sourcePath": "/Users/magnus/development/education/INE5458/block-ticket/contracts/contracts/TicketContract.sol",
  "compiler": {
    "name": "solc",
    "version": "0.8.21+commit.d9974bed.Emscripten.clang"
  },
  "schemaVersion": "3.4.16",
  "updatedAt": "2023-11-29T19:23:19.844Z",
  "networkType": "ethereum",
  "devdoc": {
    "kind": "dev",
    "methods": {},
    "version": 1
  },
  "userdoc": {
    "kind": "user",
    "methods": {},
    "version": 1
  }
}