{
  "contractName": "TicketContract",
  "abi": [
    {
      "inputs": [],
      "stateMutability": "nonpayable",
      "type": "constructor"
    },
    {
      "anonymous": false,
      "inputs": [
        {
          "indexed": true,
          "internalType": "uint256",
          "name": "eventId",
          "type": "uint256"
        },
        {
          "indexed": false,
          "internalType": "string",
          "name": "eventName",
          "type": "string"
        },
        {
          "indexed": true,
          "internalType": "address",
          "name": "organizer",
          "type": "address"
        }
      ],
      "name": "EventCreated",
      "type": "event"
    },
    {
      "anonymous": false,
      "inputs": [
        {
          "indexed": true,
          "internalType": "address",
          "name": "organizerAddress",
          "type": "address"
        },
        {
          "indexed": false,
          "internalType": "string",
          "name": "organizerName",
          "type": "string"
        }
      ],
      "name": "OrganizerCreated",
      "type": "event"
    },
    {
      "anonymous": false,
      "inputs": [
        {
          "indexed": true,
          "internalType": "uint256",
          "name": "eventId",
          "type": "uint256"
        },
        {
          "indexed": true,
          "internalType": "uint256",
          "name": "ticketId",
          "type": "uint256"
        }
      ],
      "name": "TicketCreated",
      "type": "event"
    },
    {
      "anonymous": false,
      "inputs": [
        {
          "indexed": true,
          "internalType": "uint256",
          "name": "eventId",
          "type": "uint256"
        },
        {
          "indexed": true,
          "internalType": "uint256",
          "name": "ticketId",
          "type": "uint256"
        },
        {
          "indexed": true,
          "internalType": "address",
          "name": "purchaser",
          "type": "address"
        }
      ],
      "name": "TicketPurchased",
      "type": "event"
    },
    {
      "anonymous": false,
      "inputs": [
        {
          "indexed": true,
          "internalType": "address",
          "name": "userAddress",
          "type": "address"
        },
        {
          "indexed": false,
          "internalType": "string",
          "name": "username",
          "type": "string"
        }
      ],
      "name": "UserRegistered",
      "type": "event"
    },
    {
      "inputs": [],
      "name": "eventCounter",
      "outputs": [
        {
          "internalType": "uint256",
          "name": "",
          "type": "uint256"
        }
      ],
      "stateMutability": "view",
      "type": "function",
      "constant": true
    },
    {
      "inputs": [
        {
          "internalType": "uint256",
          "name": "",
          "type": "uint256"
        }
      ],
      "name": "events",
      "outputs": [
        {
          "internalType": "string",
          "name": "eventName",
          "type": "string"
        },
        {
          "internalType": "address",
          "name": "organizer",
          "type": "address"
        },
        {
          "internalType": "uint256",
          "name": "ticketCounter",
          "type": "uint256"
        }
      ],
      "stateMutability": "view",
      "type": "function",
      "constant": true
    },
    {
      "inputs": [],
      "name": "owner",
      "outputs": [
        {
          "internalType": "address",
          "name": "",
          "type": "address"
        }
      ],
      "stateMutability": "view",
      "type": "function",
      "constant": true
    },
    {
      "inputs": [
        {
          "internalType": "address",
          "name": "",
          "type": "address"
        }
      ],
      "name": "users",
      "outputs": [
        {
          "internalType": "string",
          "name": "username",
          "type": "string"
        },
        {
          "internalType": "address",
          "name": "walletAddress",
          "type": "address"
        },
        {
          "internalType": "bytes32",
          "name": "secretKeyHash",
          "type": "bytes32"
        },
        {
          "internalType": "bool",
          "name": "isOrganiser",
          "type": "bool"
        }
      ],
      "stateMutability": "view",
      "type": "function",
      "constant": true
    },
    {
      "inputs": [
        {
          "internalType": "string",
          "name": "",
          "type": "string"
        }
      ],
      "name": "usersByUsername",
      "outputs": [
        {
          "internalType": "string",
          "name": "username",
          "type": "string"
        },
        {
          "internalType": "address",
          "name": "walletAddress",
          "type": "address"
        },
        {
          "internalType": "bytes32",
          "name": "secretKeyHash",
          "type": "bytes32"
        },
        {
          "internalType": "bool",
          "name": "isOrganiser",
          "type": "bool"
        }
      ],
      "stateMutability": "view",
      "type": "function",
      "constant": true
    },
    {
      "inputs": [
        {
          "internalType": "string",
          "name": "_username",
          "type": "string"
        },
        {
          "internalType": "bool",
          "name": "_isOrganiser",
          "type": "bool"
        }
      ],
      "name": "registerUser",
      "outputs": [],
      "stateMutability": "nonpayable",
      "type": "function"
    },
    {
      "inputs": [
        {
          "internalType": "string",
          "name": "_eventName",
          "type": "string"
        },
        {
          "internalType": "string",
          "name": "_organizerName",
          "type": "string"
        }
      ],
      "name": "createEvent",
      "outputs": [
        {
          "internalType": "uint256",
          "name": "",
          "type": "uint256"
        }
      ],
      "stateMutability": "nonpayable",
      "type": "function"
    },
    {
      "inputs": [
        {
          "internalType": "uint256",
          "name": "_eventId",
          "type": "uint256"
        },
        {
          "internalType": "uint256",
          "name": "_numTickets",
          "type": "uint256"
        }
      ],
      "name": "initializeTickets",
      "outputs": [],
      "stateMutability": "nonpayable",
      "type": "function"
    },
    {
      "inputs": [
        {
          "internalType": "uint256",
          "name": "_eventId",
          "type": "uint256"
        },
        {
          "internalType": "uint256",
          "name": "_ticketId",
          "type": "uint256"
        }
      ],
      "name": "purchaseTicket",
      "outputs": [],
      "stateMutability": "nonpayable",
      "type": "function"
    },
    {
      "inputs": [
        {
          "internalType": "uint256",
          "name": "_eventId",
          "type": "uint256"
        }
      ],
      "name": "getEventDetails",
      "outputs": [
        {
          "internalType": "string",
          "name": "",
          "type": "string"
        },
        {
          "internalType": "address",
          "name": "",
          "type": "address"
        }
      ],
      "stateMutability": "view",
      "type": "function",
      "constant": true
    },
    {
      "inputs": [
        {
          "internalType": "address",
          "name": "_userAddress",
          "type": "address"
        }
      ],
      "name": "getUserDetails",
      "outputs": [
        {
          "internalType": "string",
          "name": "",
          "type": "string"
        },
        {
          "internalType": "address",
          "name": "",
          "type": "address"
        },
        {
          "internalType": "bytes32",
          "name": "",
          "type": "bytes32"
        }
      ],
      "stateMutability": "view",
      "type": "function",
      "constant": true
    },
    {
      "inputs": [
        {
          "internalType": "string",
          "name": "_username",
          "type": "string"
        }
      ],
      "name": "checkUserExistence",
      "outputs": [
        {
          "internalType": "bool",
          "name": "",
          "type": "bool"
        },
        {
          "internalType": "string",
          "name": "",
          "type": "string"
        },
        {
          "internalType": "string",
          "name": "",
          "type": "string"
        }
      ],
      "stateMutability": "view",
      "type": "function",
      "constant": true
    }
  ],
  "bytecode": "0x608060405234801561000f575f80fd5b50335f806101000a81548173ffffffffffffffffffffffffffffffffffffffff021916908373ffffffffffffffffffffffffffffffffffffffff1602179055506122d08061005c5f395ff3fe608060405234801561000f575f80fd5b50600436106100b2575f3560e01c8063a87430ba1161006f578063a87430ba146101a5578063b3e3b1f2146101d8578063bdbbb0cb146101f4578063cc3d967b14610210578063e257a94c14610242578063ec38d5a014610272576100b2565b80630b791430146100b657806352c55db9146100e85780635ac231331461010657806379b233db146101395780638ae20603146101555780638da5cb5b14610187575b5f80fd5b6100d060048036038101906100cb9190611389565b6102a3565b6040516100df9392919061148c565b60405180910390f35b6100f061036e565b6040516100fd91906114c8565b60405180910390f35b610120600480360381019061011b919061160d565b610374565b6040516101309493929190611686565b60405180910390f35b610153600480360381019061014e91906116fa565b610469565b005b61016f600480360381019061016a919061160d565b6107bb565b60405161017e93929190611754565b60405180910390f35b61018f6108e7565b60405161019c9190611797565b60405180910390f35b6101bf60048036038101906101ba91906117da565b61090a565b6040516101cf9493929190611686565b60405180910390f35b6101f260048036038101906101ed9190611805565b6109e7565b005b61020e60048036038101906102099190611805565b610bc8565b005b61022a600480360381019061022591906117da565b610d7f565b60405161023993929190611843565b60405180910390f35b61025c6004803603810190610257919061187f565b610efa565b60405161026991906114c8565b60405180910390f35b61028c60048036038101906102879190611389565b611235565b60405161029a9291906118f5565b60405180910390f35b6002602052805f5260405f205f91509050805f0180546102c290611950565b80601f01602080910402602001604051908101604052809291908181526020018280546102ee90611950565b80156103395780601f1061031057610100808354040283529160200191610339565b820191905f5260205f20905b81548152906001019060200180831161031c57829003601f168201915b505050505090806001015f9054906101000a900473ffffffffffffffffffffffffffffffffffffffff16908060030154905083565b60045481565b6003818051602081018201805184825260208301602085012081835280955050505050505f91509050805f0180546103ab90611950565b80601f01602080910402602001604051908101604052809291908181526020018280546103d790611950565b80156104225780601f106103f957610100808354040283529160200191610422565b820191905f5260205f20905b81548152906001019060200180831161040557829003601f168201915b505050505090806001015f9054906101000a900473ffffffffffffffffffffffffffffffffffffffff1690806002015490806003015f9054906101000a900460ff16905084565b5f8251116104ac576040517f08c379a00000000000000000000000000000000000000000000000000000000081526004016104a3906119ca565b60405180910390fd5b5f73ffffffffffffffffffffffffffffffffffffffff166003836040516104d39190611a22565b90815260200160405180910390206001015f9054906101000a900473ffffffffffffffffffffffffffffffffffffffff1673ffffffffffffffffffffffffffffffffffffffff161461055a576040517f08c379a000000000000000000000000000000000000000000000000000000000815260040161055190611a82565b60405180910390fd5b5f33434060405160200161056f929190611b05565b604051602081830303815290604052805190602001205f1c90505f434090505f61059882611312565b90505f60405180608001604052808781526020018573ffffffffffffffffffffffffffffffffffffffff168152602001836040516020016105d99190611b30565b60405160208183030381529060405280519060200120815260200186151581525090508060015f8673ffffffffffffffffffffffffffffffffffffffff1673ffffffffffffffffffffffffffffffffffffffff1681526020019081526020015f205f820151815f01908161064d9190611ce7565b506020820151816001015f6101000a81548173ffffffffffffffffffffffffffffffffffffffff021916908373ffffffffffffffffffffffffffffffffffffffff160217905550604082015181600201556060820151816003015f6101000a81548160ff021916908315150217905550905050806003876040516106d19190611a22565b90815260200160405180910390205f820151815f0190816106f29190611ce7565b506020820151816001015f6101000a81548173ffffffffffffffffffffffffffffffffffffffff021916908373ffffffffffffffffffffffffffffffffffffffff160217905550604082015181600201556060820151816003015f6101000a81548160ff0219169083151502179055509050508373ffffffffffffffffffffffffffffffffffffffff167f48cac28ad4dc618e15f4c2dd5e97751182f166de97b25618318b2112aa951a2f876040516107ab9190611db6565b60405180910390a2505050505050565b5f6060805f73ffffffffffffffffffffffffffffffffffffffff166003856040516107e69190611a22565b90815260200160405180910390206001015f9054906101000a900473ffffffffffffffffffffffffffffffffffffffff1673ffffffffffffffffffffffffffffffffffffffff16141560038560405161083f9190611a22565b90815260200160405180910390205f018581805461085c90611950565b80601f016020809104026020016040519081016040528092919081815260200182805461088890611950565b80156108d35780601f106108aa576101008083540402835291602001916108d3565b820191905f5260205f20905b8154815290600101906020018083116108b657829003601f168201915b505050505091509250925092509193909250565b5f8054906101000a900473ffffffffffffffffffffffffffffffffffffffff1681565b6001602052805f5260405f205f91509050805f01805461092990611950565b80601f016020809104026020016040519081016040528092919081815260200182805461095590611950565b80156109a05780601f10610977576101008083540402835291602001916109a0565b820191905f5260205f20905b81548152906001019060200180831161098357829003601f168201915b505050505090806001015f9054906101000a900473ffffffffffffffffffffffffffffffffffffffff1690806002015490806003015f9054906101000a900460ff16905084565b5f8054906101000a900473ffffffffffffffffffffffffffffffffffffffff1673ffffffffffffffffffffffffffffffffffffffff163373ffffffffffffffffffffffffffffffffffffffff1614610a74576040517f08c379a0000000000000000000000000000000000000000000000000000000008152600401610a6b90611e20565b60405180910390fd5b3373ffffffffffffffffffffffffffffffffffffffff1660025f8481526020019081526020015f206001015f9054906101000a900473ffffffffffffffffffffffffffffffffffffffff1673ffffffffffffffffffffffffffffffffffffffff1614610b15576040517f08c379a0000000000000000000000000000000000000000000000000000000008152600401610b0c90611eae565b60405180910390fd5b5f8111610b57576040517f08c379a0000000000000000000000000000000000000000000000000000000008152600401610b4e90611f3c565b60405180910390fd5b8060025f8481526020019081526020015f20600301819055505f600190505b818111610bc3575f81905080847fde72d886343740933ca9656ec06b338266af1ba9a7ab7b1439cd1144def2d8ce60405160405180910390a3508080610bbb90611f87565b915050610b76565b505050565b5f73ffffffffffffffffffffffffffffffffffffffff1660025f8481526020019081526020015f206002015f8381526020019081526020015f206001015f9054906101000a900473ffffffffffffffffffffffffffffffffffffffff1673ffffffffffffffffffffffffffffffffffffffff1614610c7b576040517f08c379a0000000000000000000000000000000000000000000000000000000008152600401610c7290612018565b60405180910390fd5b60025f8381526020019081526020015f2060030154811115610cd2576040517f08c379a0000000000000000000000000000000000000000000000000000000008152600401610cc990612080565b60405180910390fd5b3360025f8481526020019081526020015f206002015f8381526020019081526020015f206001015f6101000a81548173ffffffffffffffffffffffffffffffffffffffff021916908373ffffffffffffffffffffffffffffffffffffffff1602179055503373ffffffffffffffffffffffffffffffffffffffff1681837f94c5953e15f54d38b82a662bdd5739fc91af3a23d3ef7e67269dfaeee71a813c60405160405180910390a45050565b60605f8060015f8573ffffffffffffffffffffffffffffffffffffffff1673ffffffffffffffffffffffffffffffffffffffff1681526020019081526020015f205f0160015f8673ffffffffffffffffffffffffffffffffffffffff1673ffffffffffffffffffffffffffffffffffffffff1681526020019081526020015f206001015f9054906101000a900473ffffffffffffffffffffffffffffffffffffffff1660015f8773ffffffffffffffffffffffffffffffffffffffff1673ffffffffffffffffffffffffffffffffffffffff1681526020019081526020015f2060020154828054610e6f90611950565b80601f0160208091040260200160405190810160405280929190818152602001828054610e9b90611950565b8015610ee65780601f10610ebd57610100808354040283529160200191610ee6565b820191905f5260205f20905b815481529060010190602001808311610ec957829003601f168201915b505050505092509250925092509193909250565b5f805f9054906101000a900473ffffffffffffffffffffffffffffffffffffffff1673ffffffffffffffffffffffffffffffffffffffff163373ffffffffffffffffffffffffffffffffffffffff1614610f89576040517f08c379a0000000000000000000000000000000000000000000000000000000008152600401610f8090611e20565b60405180910390fd5b5f835111610fcc576040517f08c379a0000000000000000000000000000000000000000000000000000000008152600401610fc3906120e8565b60405180910390fd5b5f82511161100f576040517f08c379a000000000000000000000000000000000000000000000000000000000815260040161100690612150565b60405180910390fd5b60045f81548092919061102190611f87565b91905055505f6003836040516110379190611a22565b908152602001604051809103902090505f73ffffffffffffffffffffffffffffffffffffffff16816001015f9054906101000a900473ffffffffffffffffffffffffffffffffffffffff1673ffffffffffffffffffffffffffffffffffffffff16036110d8576040517f08c379a00000000000000000000000000000000000000000000000000000000081526004016110cf906121b8565b60405180910390fd5b806003015f9054906101000a900460ff16611128576040517f08c379a000000000000000000000000000000000000000000000000000000000815260040161111f90612220565b60405180910390fd5b5f60025f60045481526020019081526020015f20905084815f01908161114e9190611ce7565b50816001015f9054906101000a900473ffffffffffffffffffffffffffffffffffffffff16816001015f6101000a81548173ffffffffffffffffffffffffffffffffffffffff021916908373ffffffffffffffffffffffffffffffffffffffff160217905550816001015f9054906101000a900473ffffffffffffffffffffffffffffffffffffffff1673ffffffffffffffffffffffffffffffffffffffff166004547f40fb05b814a900c99fa0a76d919dfdeaf3389540e4ca70f97ba40ca9a38f3797876040516112209190611db6565b60405180910390a36004549250505092915050565b60605f60025f8481526020019081526020015f205f0160025f8581526020019081526020015f206001015f9054906101000a900473ffffffffffffffffffffffffffffffffffffffff1681805461128b90611950565b80601f01602080910402602001604051908101604052809291908181526020018280546112b790611950565b80156113025780601f106112d957610100808354040283529160200191611302565b820191905f5260205f20905b8154815290600101906020018083116112e557829003601f168201915b5050505050915091509150915091565b5f8142336040516020016113289392919061225e565b604051602081830303815290604052805190602001209050919050565b5f604051905090565b5f80fd5b5f80fd5b5f819050919050565b61136881611356565b8114611372575f80fd5b50565b5f813590506113838161135f565b92915050565b5f6020828403121561139e5761139d61134e565b5b5f6113ab84828501611375565b91505092915050565b5f81519050919050565b5f82825260208201905092915050565b5f5b838110156113eb5780820151818401526020810190506113d0565b5f8484015250505050565b5f601f19601f8301169050919050565b5f611410826113b4565b61141a81856113be565b935061142a8185602086016113ce565b611433816113f6565b840191505092915050565b5f73ffffffffffffffffffffffffffffffffffffffff82169050919050565b5f6114678261143e565b9050919050565b6114778161145d565b82525050565b61148681611356565b82525050565b5f6060820190508181035f8301526114a48186611406565b90506114b3602083018561146e565b6114c0604083018461147d565b949350505050565b5f6020820190506114db5f83018461147d565b92915050565b5f80fd5b5f80fd5b7f4e487b71000000000000000000000000000000000000000000000000000000005f52604160045260245ffd5b61151f826113f6565b810181811067ffffffffffffffff8211171561153e5761153d6114e9565b5b80604052505050565b5f611550611345565b905061155c8282611516565b919050565b5f67ffffffffffffffff82111561157b5761157a6114e9565b5b611584826113f6565b9050602081019050919050565b828183375f83830152505050565b5f6115b16115ac84611561565b611547565b9050828152602081018484840111156115cd576115cc6114e5565b5b6115d8848285611591565b509392505050565b5f82601f8301126115f4576115f36114e1565b5b813561160484826020860161159f565b91505092915050565b5f602082840312156116225761162161134e565b5b5f82013567ffffffffffffffff81111561163f5761163e611352565b5b61164b848285016115e0565b91505092915050565b5f819050919050565b61166681611654565b82525050565b5f8115159050919050565b6116808161166c565b82525050565b5f6080820190508181035f83015261169e8187611406565b90506116ad602083018661146e565b6116ba604083018561165d565b6116c76060830184611677565b95945050505050565b6116d98161166c565b81146116e3575f80fd5b50565b5f813590506116f4816116d0565b92915050565b5f80604083850312156117105761170f61134e565b5b5f83013567ffffffffffffffff81111561172d5761172c611352565b5b611739858286016115e0565b925050602061174a858286016116e6565b9150509250929050565b5f6060820190506117675f830186611677565b81810360208301526117798185611406565b9050818103604083015261178d8184611406565b9050949350505050565b5f6020820190506117aa5f83018461146e565b92915050565b6117b98161145d565b81146117c3575f80fd5b50565b5f813590506117d4816117b0565b92915050565b5f602082840312156117ef576117ee61134e565b5b5f6117fc848285016117c6565b91505092915050565b5f806040838503121561181b5761181a61134e565b5b5f61182885828601611375565b925050602061183985828601611375565b9150509250929050565b5f6060820190508181035f83015261185b8186611406565b905061186a602083018561146e565b611877604083018461165d565b949350505050565b5f80604083850312156118955761189461134e565b5b5f83013567ffffffffffffffff8111156118b2576118b1611352565b5b6118be858286016115e0565b925050602083013567ffffffffffffffff8111156118df576118de611352565b5b6118eb858286016115e0565b9150509250929050565b5f6040820190508181035f83015261190d8185611406565b905061191c602083018461146e565b9392505050565b7f4e487b71000000000000000000000000000000000000000000000000000000005f52602260045260245ffd5b5f600282049050600182168061196757607f821691505b60208210810361197a57611979611923565b5b50919050565b7f557365726e616d652063616e6e6f7420626520656d70747900000000000000005f82015250565b5f6119b46018836113be565b91506119bf82611980565b602082019050919050565b5f6020820190508181035f8301526119e1816119a8565b9050919050565b5f81905092915050565b5f6119fc826113b4565b611a0681856119e8565b9350611a168185602086016113ce565b80840191505092915050565b5f611a2d82846119f2565b915081905092915050565b7f557365726e616d6520616c7265616479207265676973746572656400000000005f82015250565b5f611a6c601b836113be565b9150611a7782611a38565b602082019050919050565b5f6020820190508181035f830152611a9981611a60565b9050919050565b5f8160601b9050919050565b5f611ab682611aa0565b9050919050565b5f611ac782611aac565b9050919050565b611adf611ada8261145d565b611abd565b82525050565b5f819050919050565b611aff611afa82611654565b611ae5565b82525050565b5f611b108285611ace565b601482019150611b208284611aee565b6020820191508190509392505050565b5f611b3b8284611aee565b60208201915081905092915050565b5f819050815f5260205f209050919050565b5f6020601f8301049050919050565b5f82821b905092915050565b5f60088302611ba67fffffffffffffffffffffffffffffffffffffffffffffffffffffffffffffffff82611b6b565b611bb08683611b6b565b95508019841693508086168417925050509392505050565b5f819050919050565b5f611beb611be6611be184611356565b611bc8565b611356565b9050919050565b5f819050919050565b611c0483611bd1565b611c18611c1082611bf2565b848454611b77565b825550505050565b5f90565b611c2c611c20565b611c37818484611bfb565b505050565b5b81811015611c5a57611c4f5f82611c24565b600181019050611c3d565b5050565b601f821115611c9f57611c7081611b4a565b611c7984611b5c565b81016020851015611c88578190505b611c9c611c9485611b5c565b830182611c3c565b50505b505050565b5f82821c905092915050565b5f611cbf5f1984600802611ca4565b1980831691505092915050565b5f611cd78383611cb0565b9150826002028217905092915050565b611cf0826113b4565b67ffffffffffffffff811115611d0957611d086114e9565b5b611d138254611950565b611d1e828285611c5e565b5f60209050601f831160018114611d4f575f8415611d3d578287015190505b611d478582611ccc565b865550611dae565b601f198416611d5d86611b4a565b5f5b82811015611d8457848901518255600182019150602085019450602081019050611d5f565b86831015611da15784890151611d9d601f891682611cb0565b8355505b6001600288020188555050505b505050505050565b5f6020820190508181035f830152611dce8184611406565b905092915050565b7f4e6f742074686520636f6e7472616374206f776e6572000000000000000000005f82015250565b5f611e0a6016836113be565b9150611e1582611dd6565b602082019050919050565b5f6020820190508181035f830152611e3781611dfe565b9050919050565b7f4f6e6c7920746865206576656e74206f7267616e697a65722063616e20696e695f8201527f7469616c697a65207469636b6574730000000000000000000000000000000000602082015250565b5f611e98602f836113be565b9150611ea382611e3e565b604082019050919050565b5f6020820190508181035f830152611ec581611e8c565b9050919050565b7f4e756d626572206f66207469636b657473206d757374206265206772656174655f8201527f72207468616e207a65726f000000000000000000000000000000000000000000602082015250565b5f611f26602b836113be565b9150611f3182611ecc565b604082019050919050565b5f6020820190508181035f830152611f5381611f1a565b9050919050565b7f4e487b71000000000000000000000000000000000000000000000000000000005f52601160045260245ffd5b5f611f9182611356565b91507fffffffffffffffffffffffffffffffffffffffffffffffffffffffffffffffff8203611fc357611fc2611f5a565b5b600182019050919050565b7f5469636b657420616c72656164792070757263686173656400000000000000005f82015250565b5f6120026018836113be565b915061200d82611fce565b602082019050919050565b5f6020820190508181035f83015261202f81611ff6565b9050919050565b7f496e76616c6964207469636b65742049440000000000000000000000000000005f82015250565b5f61206a6011836113be565b915061207582612036565b602082019050919050565b5f6020820190508181035f8301526120978161205e565b9050919050565b7f4576656e74206e616d652063616e6e6f7420626520656d7074790000000000005f82015250565b5f6120d2601a836113be565b91506120dd8261209e565b602082019050919050565b5f6020820190508181035f8301526120ff816120c6565b9050919050565b7f4f7267616e697a6572206e616d652063616e6e6f7420626520656d70747900005f82015250565b5f61213a601e836113be565b915061214582612106565b602082019050919050565b5f6020820190508181035f8301526121678161212e565b9050919050565b7f4f7267616e697a657220646f6573206e6f7420657869737400000000000000005f82015250565b5f6121a26018836113be565b91506121ad8261216e565b602082019050919050565b5f6020820190508181035f8301526121cf81612196565b9050919050565b7f55736572206973206e6f7420616e206f7267616e697a657200000000000000005f82015250565b5f61220a6018836113be565b9150612215826121d6565b602082019050919050565b5f6020820190508181035f830152612237816121fe565b9050919050565b5f819050919050565b61225861225382611356565b61223e565b82525050565b5f6122698286611aee565b6020820191506122798285612247565b6020820191506122898284611ace565b60148201915081905094935050505056fea26469706673582212209b693017ecc3975d438cb5349ac3865da190bca7ab1ec20a0ddbbbd96f5147ef64736f6c63430008150033",
  "immutableReferences": {},
  "source": "// SPDX-License-Identifier: MIT\npragma solidity ^0.8.0;\n\ncontract TicketContract {\n    address public owner;\n\n    // Struct to represent a user\n    struct User {\n        string username;\n        address walletAddress;\n        bytes32 secretKeyHash; // Hash of the secret key\n        bool isOrganiser;\n    }\n\n    // Struct to represent an event\n    struct Event {\n        string eventName;\n        address organizer;\n        mapping(uint256 => Ticket) tickets; // Mapping to store tickets for an event\n        uint256 ticketCounter; // Counter for ticket IDs\n    }\n\n    // Struct to represent a ticket\n    struct Ticket {\n        uint256 ticketId;\n        address purchaser;\n    }\n\n    // Mapping to store users\n    mapping(address => User) public users;\n\n    // Mapping to store events\n    mapping(uint256 => Event) public events;\n\n    // Mapping to store users by username\n    mapping(string => User) public usersByUsername;\n\n    // Counter for event IDs\n    uint256 public eventCounter;\n\n    // Event to log user registration\n    event UserRegistered(address indexed userAddress, string username);\n\n    // Event to log event creation\n    event EventCreated(uint256 indexed eventId, string eventName, address indexed organizer);\n\n    // Event to log organizer creation\n    event OrganizerCreated(address indexed organizerAddress, string organizerName);\n\n    // Event to log ticket purchase\n    event TicketPurchased(uint256 indexed eventId, uint256 indexed ticketId, address indexed purchaser);\n\n    // Modifier to ensure only the contract owner can execute certain functions\n    modifier onlyOwner() {\n        require(msg.sender == owner, \"Not the contract owner\");\n        _;\n    }\n\n    // Constructor to set the contract owner\n    constructor() {\n        owner = msg.sender;\n    }\n\n    // Function to generate a random secret key\n    function generateRandomSecretKey(bytes32 _blockHash) internal view returns (bytes32) {\n        return keccak256(abi.encodePacked(_blockHash, block.timestamp, msg.sender));\n    }\n\n    // Function to register a new user\n    function registerUser(string memory _username, bool _isOrganiser) public {\n        require(bytes(_username).length > 0, \"Username cannot be empty\");\n        require(usersByUsername[_username].walletAddress == address(0), \"Username already registered\");\n\n        // Generate a new address based on the current user's address and some randomness\n        address newUserAddress = address(uint160(uint256(keccak256(abi.encodePacked(msg.sender, blockhash(block.number))))));\n\n        // Get the block hash of the current block\n        bytes32 blockHash = blockhash(block.number);\n\n        // Generate a random secret key for the user\n        bytes32 secretKey = generateRandomSecretKey(blockHash);\n\n        // Create a new user\n        User memory newUser = User({\n            username: _username,\n            walletAddress: newUserAddress,\n            secretKeyHash: keccak256(abi.encodePacked(secretKey)),\n            isOrganiser: _isOrganiser\n        });\n\n        // Store the user in the mapping\n        users[newUserAddress] = newUser;\n        usersByUsername[_username] = newUser;\n\n        // Emit the UserRegistered event\n        emit UserRegistered(newUserAddress, _username);\n    }\n\n    // Function to create a new event\n    function createEvent(string memory _eventName, string memory _organizerName) public onlyOwner returns (uint256) {\n        require(bytes(_eventName).length > 0, \"Event name cannot be empty\");\n        require(bytes(_organizerName).length > 0, \"Organizer name cannot be empty\");\n\n        // Increment eventCounter to get a unique event ID\n        eventCounter++;\n\n        // Get the user based on the provided organizer name\n        User storage organizer = usersByUsername[_organizerName];\n\n        // Check if the organizer exists and is an organizer\n        require(organizer.walletAddress != address(0), \"Organizer does not exist\");\n        require(organizer.isOrganiser, \"User is not an organizer\");\n\n        // Create a new event without initializing tickets mapping\n        Event storage newEvent = events[eventCounter];\n        newEvent.eventName = _eventName;\n        newEvent.organizer = organizer.walletAddress;\n\n        // Emit the EventCreated event\n        emit EventCreated(eventCounter, _eventName, organizer.walletAddress);\n\n        return eventCounter;\n    }\n\n    // Function to initialize tickets for an event\n    function initializeTickets(uint256 _eventId, uint256 _numTickets) public onlyOwner {\n        require(events[_eventId].organizer == msg.sender, \"Only the event organizer can initialize tickets\");\n        require(_numTickets > 0, \"Number of tickets must be greater than zero\");\n\n        // Initialize ticketCounter for the event\n        events[_eventId].ticketCounter = _numTickets;\n\n        // Create tickets and store them in the event mapping\n        for (uint256 i = 1; i <= _numTickets; i++) {\n            uint256 ticketId = i;\n            \n            // Emit the TicketCreated event\n            emit TicketCreated(_eventId, ticketId);\n        }\n    }\n\n    // Event to log ticket creation\n    event TicketCreated(uint256 indexed eventId, uint256 indexed ticketId);\n\n\n    // Function to purchase a ticket\n    function purchaseTicket(uint256 _eventId, uint256 _ticketId) public {\n        require(events[_eventId].tickets[_ticketId].purchaser == address(0), \"Ticket already purchased\");\n        require(_ticketId <= events[_eventId].ticketCounter, \"Invalid ticket ID\");\n\n        // Update the ticket purchaser\n        events[_eventId].tickets[_ticketId].purchaser = msg.sender;\n\n        // Emit the TicketPurchased event\n        emit TicketPurchased(_eventId, _ticketId, msg.sender);\n    }\n\n    // Function to get event details by ID\n    function getEventDetails(uint256 _eventId) public view returns (string memory, address) {\n        return (events[_eventId].eventName, events[_eventId].organizer);\n    }\n\n    // Function to get user details by address\n    function getUserDetails(address _userAddress) public view returns (string memory, address, bytes32) {\n        return (users[_userAddress].username, users[_userAddress].walletAddress, users[_userAddress].secretKeyHash);\n    }\n\n    // Function to check if a user with a given username exists\n    function checkUserExistence(string memory _username) public view returns (bool, string memory, string memory) {\n        return (\n            usersByUsername[_username].walletAddress != address(0),\n            usersByUsername[_username].username,\n            _username\n        );\n    }\n}\n",
  "sourcePath": "/Users/magnus/development/education/INE5458/block-ticket/contracts/contracts/TicketContract.sol",
  "compiler": {
    "name": "solc",
    "version": "0.8.21+commit.d9974bed.Emscripten.clang"
  },
  "schemaVersion": "3.4.16",
  "updatedAt": "2023-11-30T07:48:42.560Z",
  "networkType": "ethereum",
  "devdoc": {
    "kind": "dev",
    "methods": {},
    "version": 1
  },
  "userdoc": {
    "kind": "user",
    "methods": {},
    "version": 1
  }
}